{
  "_format": "hh-sol-artifact-1",
  "contractName": "Fund",
  "sourceName": "contracts/Fund.sol",
  "abi": [
    {
      "anonymous": false,
      "inputs": [
        {
          "indexed": true,
          "internalType": "address",
          "name": "addr",
          "type": "address"
        },
        {
          "indexed": false,
          "internalType": "uint256",
          "name": "amount",
          "type": "uint256"
        },
        {
          "indexed": false,
          "internalType": "uint256",
          "name": "balance",
          "type": "uint256"
        }
      ],
      "name": "Deposit",
      "type": "event"
    },
    {
      "anonymous": false,
      "inputs": [
        {
          "indexed": true,
          "internalType": "address",
          "name": "addr",
          "type": "address"
        },
        {
          "indexed": false,
          "internalType": "uint256",
          "name": "amount",
          "type": "uint256"
        },
        {
          "indexed": false,
          "internalType": "uint256",
          "name": "balance",
          "type": "uint256"
        }
      ],
      "name": "Withdraw",
      "type": "event"
    },
    {
      "inputs": [
        {
          "internalType": "address",
          "name": "",
          "type": "address"
        }
      ],
      "name": "addressToAmountFunded",
      "outputs": [
        {
          "internalType": "uint256",
          "name": "",
          "type": "uint256"
        }
      ],
      "stateMutability": "view",
      "type": "function"
    },
    {
      "inputs": [],
      "name": "fund",
      "outputs": [],
      "stateMutability": "payable",
      "type": "function"
    },
    {
      "inputs": [
        {
          "internalType": "uint256",
          "name": "",
          "type": "uint256"
        }
      ],
      "name": "funders",
      "outputs": [
        {
          "internalType": "address",
          "name": "",
          "type": "address"
        }
      ],
      "stateMutability": "view",
      "type": "function"
    },
    {
      "inputs": [
        {
          "internalType": "address",
          "name": "_addr",
          "type": "address"
        }
      ],
      "name": "getAddressToAmountFunded",
      "outputs": [
        {
          "internalType": "uint256",
          "name": "",
          "type": "uint256"
        }
      ],
      "stateMutability": "view",
      "type": "function"
    },
    {
      "inputs": [],
      "name": "getFunders",
      "outputs": [
        {
          "internalType": "address[]",
          "name": "",
          "type": "address[]"
        }
      ],
      "stateMutability": "view",
      "type": "function"
    },
    {
      "inputs": [],
      "name": "getTotalFunds",
      "outputs": [
        {
          "internalType": "uint256",
          "name": "",
          "type": "uint256"
        }
      ],
      "stateMutability": "view",
      "type": "function"
    },
    {
      "inputs": [],
      "name": "swap",
      "outputs": [],
      "stateMutability": "payable",
      "type": "function"
    },
    {
      "inputs": [],
      "name": "totalFunds",
      "outputs": [
        {
          "internalType": "uint256",
          "name": "",
          "type": "uint256"
        }
      ],
      "stateMutability": "view",
      "type": "function"
    },
    {
      "inputs": [
        {
          "internalType": "uint256",
          "name": "_amount",
          "type": "uint256"
        }
      ],
      "name": "withdraw",
      "outputs": [],
      "stateMutability": "payable",
      "type": "function"
    }
  ],
  "bytecode": "0x608060405234801561001057600080fd5b5061059c806100206000396000f3fe6080604052600436106100865760003560e01c8063968ed60011610059578063968ed6001461011e578063b60d428814610134578063dc0d3dff1461013c578063ea63a04414610174578063eb8bbd281461019657600080fd5b80630343fb251461008b5780632e1a7d4d146100d45780633e47d6f3146100e95780638119c06514610116575b600080fd5b34801561009757600080fd5b506100c16100a636600461048e565b6001600160a01b031660009081526020819052604090205490565b6040519081526020015b60405180910390f35b6100e76100e23660046104bc565b6101ab565b005b3480156100f557600080fd5b506100c161010436600461048e565b60006020819052908152604090205481565b6100e76102db565b34801561012a57600080fd5b506100c160015481565b6100e761033e565b34801561014857600080fd5b5061015c6101573660046104bc565b610402565b6040516001600160a01b0390911681526020016100cb565b34801561018057600080fd5b5061018961042c565b6040516100cb91906104d4565b3480156101a257600080fd5b506001546100c1565b336000908152602081905260409020548111156102275760405162461bcd60e51b815260206004820152602f60248201527f596f752063616e2774207769746864726177206d6f7265207468616e2077686160448201526e1d081e5bdd4819195c1bdcda5d1959608a1b60648201526084015b60405180910390fd5b3360009081526020819052604081208054839290610246908490610539565b92505081905550806001600082825461025f9190610539565b90915550503360008181526020818152604091829020548251858152918201527ff279e6a1f5e320cca91135676d9cb6e44ca8a08c0b88342bcdb1144f6511b568910160405180910390a2604051339082156108fc029083906000818181858888f193505050501580156102d7573d6000803e3d6000fd5b5050565b670de0b6b3a76400003410156103255760405162461bcd60e51b815260206004820152600f60248201526e09cdee840cadcdeeaced04082ac82b608b1b604482015260640161021e565b34600160008282546103379190610521565b9091555050565b336000908152602081905260408120805434929061035d908490610521565b9250508190555034600160008282546103769190610521565b909155505060028054600181019091557f405787fa12a823e0f2b7631cc41b3ba8828b3321ca811111fa75cd3aa3bb5ace0180546001600160a01b0319163390811790915560008181526020818152604091829020548251348152918201527f90890809c654f11d6e72a28fa60149770a0d11ec6c92319d6ceb2bb0a4ea1a15910160405180910390a2565b6002818154811061041257600080fd5b6000918252602090912001546001600160a01b0316905081565b6060600280548060200260200160405190810160405280929190818152602001828054801561048457602002820191906000526020600020905b81546001600160a01b03168152600190910190602001808311610466575b5050505050905090565b60006020828403121561049f578081fd5b81356001600160a01b03811681146104b5578182fd5b9392505050565b6000602082840312156104cd578081fd5b5035919050565b6020808252825182820181905260009190848201906040850190845b818110156105155783516001600160a01b0316835292840192918401916001016104f0565b50909695505050505050565b6000821982111561053457610534610550565b500190565b60008282101561054b5761054b610550565b500390565b634e487b7160e01b600052601160045260246000fdfea264697066735822122043674bb01fcd254d9f1ca1b0393b09e21bb08efefd105f4177f7ac73b67f4f0464736f6c63430008040033",
  "linkReferences": {},
  "deployedLinkReferences": {}
}